{
  "_format": "hh-sol-artifact-1",
  "contractName": "VRFD20",
  "sourceName": "contracts/VRFD20.sol",
  "abi": [
    {
      "inputs": [
        {
          "internalType": "address",
          "name": "vrfCoordinator",
          "type": "address"
        },
        {
          "internalType": "address",
          "name": "linkToken",
          "type": "address"
        }
      ],
      "stateMutability": "nonpayable",
      "type": "constructor"
    },
    {
      "anonymous": false,
      "inputs": [
        {
          "indexed": true,
          "internalType": "uint256",
          "name": "requestId",
          "type": "uint256"
        }
      ],
      "name": "NumberGenerated",
      "type": "event"
    },
    {
      "anonymous": false,
      "inputs": [
        {
          "indexed": false,
          "internalType": "address",
          "name": "newNft",
          "type": "address"
        },
        {
          "indexed": true,
          "internalType": "uint256",
          "name": "id",
          "type": "uint256"
        }
      ],
      "name": "nftUpdated",
      "type": "event"
    },
    {
      "inputs": [
        {
          "internalType": "address",
          "name": "newAddress",
          "type": "address"
        },
        {
          "internalType": "address",
          "name": "nftAddress",
          "type": "address"
        },
        {
          "internalType": "uint256",
          "name": "id",
          "type": "uint256"
        }
      ],
      "name": "addNft",
      "outputs": [],
      "stateMutability": "nonpayable",
      "type": "function"
    },
    {
      "inputs": [
        {
          "internalType": "uint256",
          "name": "",
          "type": "uint256"
        }
      ],
      "name": "arr",
      "outputs": [
        {
          "internalType": "address",
          "name": "",
          "type": "address"
        }
      ],
      "stateMutability": "view",
      "type": "function"
    },
    {
      "inputs": [],
      "name": "getBalance",
      "outputs": [
        {
          "internalType": "uint256",
          "name": "output",
          "type": "uint256"
        }
      ],
      "stateMutability": "nonpayable",
      "type": "function"
    },
    {
      "inputs": [
        {
          "internalType": "uint256",
          "name": "index",
          "type": "uint256"
        }
      ],
      "name": "getId",
      "outputs": [
        {
          "internalType": "uint256",
          "name": "output",
          "type": "uint256"
        }
      ],
      "stateMutability": "view",
      "type": "function"
    },
    {
      "inputs": [],
      "name": "getRandomNumber",
      "outputs": [
        {
          "internalType": "bytes32",
          "name": "requestId",
          "type": "bytes32"
        }
      ],
      "stateMutability": "nonpayable",
      "type": "function"
    },
    {
      "inputs": [
        {
          "internalType": "uint256",
          "name": "",
          "type": "uint256"
        }
      ],
      "name": "ids",
      "outputs": [
        {
          "internalType": "uint256",
          "name": "",
          "type": "uint256"
        }
      ],
      "stateMutability": "view",
      "type": "function"
    },
    {
      "inputs": [],
      "name": "nftAmount",
      "outputs": [
        {
          "internalType": "uint256",
          "name": "",
          "type": "uint256"
        }
      ],
      "stateMutability": "view",
      "type": "function"
    },
    {
      "inputs": [
        {
          "internalType": "address",
          "name": "",
          "type": "address"
        }
      ],
      "name": "nfts",
      "outputs": [
        {
          "internalType": "address",
          "name": "",
          "type": "address"
        }
      ],
      "stateMutability": "view",
      "type": "function"
    },
    {
      "inputs": [],
      "name": "porque",
      "outputs": [
        {
          "internalType": "uint256",
          "name": "",
          "type": "uint256"
        }
      ],
      "stateMutability": "view",
      "type": "function"
    },
    {
      "inputs": [],
      "name": "randomResult",
      "outputs": [
        {
          "internalType": "uint256",
          "name": "",
          "type": "uint256"
        }
      ],
      "stateMutability": "view",
      "type": "function"
    },
    {
      "inputs": [
        {
          "internalType": "bytes32",
          "name": "requestId",
          "type": "bytes32"
        },
        {
          "internalType": "uint256",
          "name": "randomness",
          "type": "uint256"
        }
      ],
      "name": "rawFulfillRandomness",
      "outputs": [],
      "stateMutability": "nonpayable",
      "type": "function"
    },
    {
      "inputs": [],
      "name": "updateNft",
      "outputs": [
        {
          "internalType": "address",
          "name": "",
          "type": "address"
        }
      ],
      "stateMutability": "nonpayable",
      "type": "function"
    }
  ],
  "bytecode": "0x60c06040523480156200001157600080fd5b506040516200129038038062001290833981810160405281019062000037919062000110565b81818173ffffffffffffffffffffffffffffffffffffffff1660a08173ffffffffffffffffffffffffffffffffffffffff1660601b815250508073ffffffffffffffffffffffffffffffffffffffff1660808173ffffffffffffffffffffffffffffffffffffffff1660601b8152505050507f6e75b569a01ef56d18cab6a8e71e6600d6ce853834d4a5748b720d06f878b3a460001b60018190555067016345785d8a00006002819055506000600381905550426007819055505050620001aa565b6000815190506200010a8162000190565b92915050565b600080604083850312156200012a57620001296200018b565b5b60006200013a85828601620000f9565b92505060206200014d85828601620000f9565b9150509250929050565b600062000164826200016b565b9050919050565b600073ffffffffffffffffffffffffffffffffffffffff82169050919050565b600080fd5b6200019b8162000157565b8114620001a757600080fd5b50565b60805160601c60a05160601c6110a5620001eb6000396000818161059601526107e10152600081816102e30152818161063701526107a501526110a56000f3fe608060405234801561001057600080fd5b50600436106100b45760003560e01c806371e5ee5f1161007157806371e5ee5f1461019157806378a74988146101c157806394985ddd146101dd578063dbdff2c1146101f9578063def8a16914610217578063fac333ac14610235576100b4565b8063069a9ac3146100b957806312065fe0146100d7578063288b3453146100f557806342619f6614610113578063545a153a14610131578063599db0f814610161575b600080fd5b6100c1610265565b6040516100ce9190610c25565b60405180910390f35b6100df6102df565b6040516100ec9190610d47565b60405180910390f35b6100fd61038f565b60405161010a9190610d47565b60405180910390f35b61011b610395565b6040516101289190610d47565b60405180910390f35b61014b60048036038101906101469190610ac5565b61039b565b6040516101589190610d47565b60405180910390f35b61017b600480360381019061017691906109d8565b6103c3565b6040516101889190610c25565b60405180910390f35b6101ab60048036038101906101a69190610ac5565b6103f6565b6040516101b89190610c25565b60405180910390f35b6101db60048036038101906101d69190610a05565b610435565b005b6101f760048036038101906101f29190610a85565b610594565b005b610201610630565b60405161020e9190610c7e565b60405180910390f35b61021f610732565b60405161022c9190610d47565b60405180910390f35b61024f600480360381019061024a9190610ac5565b610738565b60405161025c9190610d47565b60405180910390f35b600042603c6007546102779190610d8f565b10156102db57600060056008548154811061029557610294610f56565b5b9060005260206000200160009054906101000a900473ffffffffffffffffffffffffffffffffffffffff169050426007819055506102d1610630565b50809150506102dc565b5b90565b60007f000000000000000000000000000000000000000000000000000000000000000073ffffffffffffffffffffffffffffffffffffffff166370a08231306040518263ffffffff1660e01b815260040161033a9190610c25565b60206040518083038186803b15801561035257600080fd5b505afa158015610366573d6000803e3d6000fd5b505050506040513d601f19601f8201168201806040525081019061038a9190610af2565b905090565b60035481565b60085481565b6000600682815481106103b1576103b0610f56565b5b90600052602060002001549050919050565b60046020528060005260406000206000915054906101000a900473ffffffffffffffffffffffffffffffffffffffff1681565b6005818154811061040657600080fd5b906000526020600020016000915054906101000a900473ffffffffffffffffffffffffffffffffffffffff1681565b6003600081548092919061044890610e6a565b91905055506005829080600181540180825580915050600190039060005260206000200160009091909190916101000a81548173ffffffffffffffffffffffffffffffffffffffff021916908373ffffffffffffffffffffffffffffffffffffffff160217905550600681908060018154018082558091505060019003906000526020600020016000909190919091505582600460008473ffffffffffffffffffffffffffffffffffffffff1673ffffffffffffffffffffffffffffffffffffffff16815260200190815260200160002060006101000a81548173ffffffffffffffffffffffffffffffffffffffff021916908373ffffffffffffffffffffffffffffffffffffffff160217905550807f1d89abf450ce08f856280a992abd40e147723eb5d1a77c8b928c972b63a1d2ee836040516105879190610c25565b60405180910390a2505050565b7f000000000000000000000000000000000000000000000000000000000000000073ffffffffffffffffffffffffffffffffffffffff163373ffffffffffffffffffffffffffffffffffffffff1614610622576040517f08c379a000000000000000000000000000000000000000000000000000000000815260040161061990610d27565b60405180910390fd5b61062c828261075c565b5050565b60006002547f000000000000000000000000000000000000000000000000000000000000000073ffffffffffffffffffffffffffffffffffffffff166370a08231306040518263ffffffff1660e01b815260040161068e9190610c25565b60206040518083038186803b1580156106a657600080fd5b505afa1580156106ba573d6000803e3d6000fd5b505050506040513d601f19601f820116820180604052508101906106de9190610af2565b101561071f576040517f08c379a000000000000000000000000000000000000000000000000000000000815260040161071690610d07565b60405180910390fd5b61072d6001546002546107a1565b905090565b60095481565b6006818154811061074857600080fd5b906000526020600020016000915090505481565b6003548161076a9190610ec7565b600881905550807f645c265791918947597f85b236234d06987ae8864af96aa3cc55dee951a0fbe660405160405180910390a25050565b60007f000000000000000000000000000000000000000000000000000000000000000073ffffffffffffffffffffffffffffffffffffffff16634000aea07f000000000000000000000000000000000000000000000000000000000000000084866000604051602001610815929190610c99565b6040516020818303038152906040526040518463ffffffff1660e01b815260040161084293929190610c40565b602060405180830381600087803b15801561085c57600080fd5b505af1158015610870573d6000803e3d6000fd5b505050506040513d601f19601f820116820180604052508101906108949190610a58565b5060006108b68460003060008089815260200190815260200160002054610900565b90506001600080868152602001908152602001600020546108d79190610d8f565b600080868152602001908152602001600020819055506108f7848261093c565b91505092915050565b6000848484846040516020016109199493929190610cc2565b6040516020818303038152906040528051906020012060001c9050949350505050565b60008282604051602001610951929190610bf9565b60405160208183030381529060405280519060200120905092915050565b60008135905061097e81611013565b92915050565b6000815190506109938161102a565b92915050565b6000813590506109a881611041565b92915050565b6000813590506109bd81611058565b92915050565b6000815190506109d281611058565b92915050565b6000602082840312156109ee576109ed610f85565b5b60006109fc8482850161096f565b91505092915050565b600080600060608486031215610a1e57610a1d610f85565b5b6000610a2c8682870161096f565b9350506020610a3d8682870161096f565b9250506040610a4e868287016109ae565b9150509250925092565b600060208284031215610a6e57610a6d610f85565b5b6000610a7c84828501610984565b91505092915050565b60008060408385031215610a9c57610a9b610f85565b5b6000610aaa85828601610999565b9250506020610abb858286016109ae565b9150509250929050565b600060208284031215610adb57610ada610f85565b5b6000610ae9848285016109ae565b91505092915050565b600060208284031215610b0857610b07610f85565b5b6000610b16848285016109c3565b91505092915050565b610b2881610de5565b82525050565b610b3781610e03565b82525050565b610b4e610b4982610e03565b610eb3565b82525050565b6000610b5f82610d62565b610b698185610d6d565b9350610b79818560208601610e37565b610b8281610f8a565b840191505092915050565b6000610b9a602b83610d7e565b9150610ba582610f9b565b604082019050919050565b6000610bbd601f83610d7e565b9150610bc882610fea565b602082019050919050565b610bdc81610e2d565b82525050565b610bf3610bee82610e2d565b610ebd565b82525050565b6000610c058285610b3d565b602082019150610c158284610be2565b6020820191508190509392505050565b6000602082019050610c3a6000830184610b1f565b92915050565b6000606082019050610c556000830186610b1f565b610c626020830185610bd3565b8181036040830152610c748184610b54565b9050949350505050565b6000602082019050610c936000830184610b2e565b92915050565b6000604082019050610cae6000830185610b2e565b610cbb6020830184610bd3565b9392505050565b6000608082019050610cd76000830187610b2e565b610ce46020830186610bd3565b610cf16040830185610b1f565b610cfe6060830184610bd3565b95945050505050565b60006020820190508181036000830152610d2081610b8d565b9050919050565b60006020820190508181036000830152610d4081610bb0565b9050919050565b6000602082019050610d5c6000830184610bd3565b92915050565b600081519050919050565b600082825260208201905092915050565b600082825260208201905092915050565b6000610d9a82610e2d565b9150610da583610e2d565b9250827fffffffffffffffffffffffffffffffffffffffffffffffffffffffffffffffff03821115610dda57610dd9610ef8565b5b828201905092915050565b6000610df082610e0d565b9050919050565b60008115159050919050565b6000819050919050565b600073ffffffffffffffffffffffffffffffffffffffff82169050919050565b6000819050919050565b60005b83811015610e55578082015181840152602081019050610e3a565b83811115610e64576000848401525b50505050565b6000610e7582610e2d565b91507fffffffffffffffffffffffffffffffffffffffffffffffffffffffffffffffff821415610ea857610ea7610ef8565b5b600182019050919050565b6000819050919050565b6000819050919050565b6000610ed282610e2d565b9150610edd83610e2d565b925082610eed57610eec610f27565b5b828206905092915050565b7f4e487b7100000000000000000000000000000000000000000000000000000000600052601160045260246000fd5b7f4e487b7100000000000000000000000000000000000000000000000000000000600052601260045260246000fd5b7f4e487b7100000000000000000000000000000000000000000000000000000000600052603260045260246000fd5b600080fd5b6000601f19601f8301169050919050565b7f4e6f7420656e6f756768204c494e4b202d2066696c6c20636f6e74726163742060008201527f7769746820666175636574000000000000000000000000000000000000000000602082015250565b7f4f6e6c7920565246436f6f7264696e61746f722063616e2066756c66696c6c00600082015250565b61101c81610de5565b811461102757600080fd5b50565b61103381610df7565b811461103e57600080fd5b50565b61104a81610e03565b811461105557600080fd5b50565b61106181610e2d565b811461106c57600080fd5b5056fea264697066735822122070f6d1228e3fbb6e2bacf67835245d807f8005a351003299fdfc7248a9cffff064736f6c63430008070033",
  "linkReferences": {},
  "deployedLinkReferences": {}
}